{
  "_format": "hh-sol-artifact-1",
  "contractName": "MyEpicNFT",
  "sourceName": "contracts/MyEpicNFT.sol",
  "abi": [
    {
      "inputs": [],
      "stateMutability": "nonpayable",
      "type": "constructor"
    },
    {
      "anonymous": false,
      "inputs": [
        {
          "indexed": true,
          "internalType": "address",
          "name": "owner",
          "type": "address"
        },
        {
          "indexed": true,
          "internalType": "address",
          "name": "approved",
          "type": "address"
        },
        {
          "indexed": true,
          "internalType": "uint256",
          "name": "tokenId",
          "type": "uint256"
        }
      ],
      "name": "Approval",
      "type": "event"
    },
    {
      "anonymous": false,
      "inputs": [
        {
          "indexed": true,
          "internalType": "address",
          "name": "owner",
          "type": "address"
        },
        {
          "indexed": true,
          "internalType": "address",
          "name": "operator",
          "type": "address"
        },
        {
          "indexed": false,
          "internalType": "bool",
          "name": "approved",
          "type": "bool"
        }
      ],
      "name": "ApprovalForAll",
      "type": "event"
    },
    {
      "anonymous": false,
      "inputs": [
        {
          "indexed": false,
          "internalType": "address",
          "name": "sender",
          "type": "address"
        },
        {
          "indexed": false,
          "internalType": "uint256",
          "name": "tokenId",
          "type": "uint256"
        }
      ],
      "name": "NewEpicNFTMinted",
      "type": "event"
    },
    {
      "anonymous": false,
      "inputs": [
        {
          "indexed": true,
          "internalType": "address",
          "name": "from",
          "type": "address"
        },
        {
          "indexed": true,
          "internalType": "address",
          "name": "to",
          "type": "address"
        },
        {
          "indexed": true,
          "internalType": "uint256",
          "name": "tokenId",
          "type": "uint256"
        }
      ],
      "name": "Transfer",
      "type": "event"
    },
    {
      "inputs": [
        {
          "internalType": "address",
          "name": "to",
          "type": "address"
        },
        {
          "internalType": "uint256",
          "name": "tokenId",
          "type": "uint256"
        }
      ],
      "name": "approve",
      "outputs": [],
      "stateMutability": "nonpayable",
      "type": "function"
    },
    {
      "inputs": [
        {
          "internalType": "address",
          "name": "owner",
          "type": "address"
        }
      ],
      "name": "balanceOf",
      "outputs": [
        {
          "internalType": "uint256",
          "name": "",
          "type": "uint256"
        }
      ],
      "stateMutability": "view",
      "type": "function"
    },
    {
      "inputs": [
        {
          "internalType": "uint256",
          "name": "tokenId",
          "type": "uint256"
        }
      ],
      "name": "getApproved",
      "outputs": [
        {
          "internalType": "address",
          "name": "",
          "type": "address"
        }
      ],
      "stateMutability": "view",
      "type": "function"
    },
    {
      "inputs": [
        {
          "internalType": "address",
          "name": "owner",
          "type": "address"
        },
        {
          "internalType": "address",
          "name": "operator",
          "type": "address"
        }
      ],
      "name": "isApprovedForAll",
      "outputs": [
        {
          "internalType": "bool",
          "name": "",
          "type": "bool"
        }
      ],
      "stateMutability": "view",
      "type": "function"
    },
    {
      "inputs": [],
      "name": "makeAnEpicNFT",
      "outputs": [],
      "stateMutability": "nonpayable",
      "type": "function"
    },
    {
      "inputs": [],
      "name": "name",
      "outputs": [
        {
          "internalType": "string",
          "name": "",
          "type": "string"
        }
      ],
      "stateMutability": "view",
      "type": "function"
    },
    {
      "inputs": [
        {
          "internalType": "uint256",
          "name": "tokenId",
          "type": "uint256"
        }
      ],
      "name": "ownerOf",
      "outputs": [
        {
          "internalType": "address",
          "name": "",
          "type": "address"
        }
      ],
      "stateMutability": "view",
      "type": "function"
    },
    {
      "inputs": [
        {
          "internalType": "uint256",
          "name": "tokenId",
          "type": "uint256"
        }
      ],
      "name": "pickRandomFirstWord",
      "outputs": [
        {
          "internalType": "string",
          "name": "",
          "type": "string"
        }
      ],
      "stateMutability": "view",
      "type": "function"
    },
    {
      "inputs": [
        {
          "internalType": "uint256",
          "name": "tokenId",
          "type": "uint256"
        }
      ],
      "name": "pickRandomSecondWord",
      "outputs": [
        {
          "internalType": "string",
          "name": "",
          "type": "string"
        }
      ],
      "stateMutability": "view",
      "type": "function"
    },
    {
      "inputs": [
        {
          "internalType": "uint256",
          "name": "tokenId",
          "type": "uint256"
        }
      ],
      "name": "pickRandomThirdWord",
      "outputs": [
        {
          "internalType": "string",
          "name": "",
          "type": "string"
        }
      ],
      "stateMutability": "view",
      "type": "function"
    },
    {
      "inputs": [
        {
          "internalType": "address",
          "name": "from",
          "type": "address"
        },
        {
          "internalType": "address",
          "name": "to",
          "type": "address"
        },
        {
          "internalType": "uint256",
          "name": "tokenId",
          "type": "uint256"
        }
      ],
      "name": "safeTransferFrom",
      "outputs": [],
      "stateMutability": "nonpayable",
      "type": "function"
    },
    {
      "inputs": [
        {
          "internalType": "address",
          "name": "from",
          "type": "address"
        },
        {
          "internalType": "address",
          "name": "to",
          "type": "address"
        },
        {
          "internalType": "uint256",
          "name": "tokenId",
          "type": "uint256"
        },
        {
          "internalType": "bytes",
          "name": "data",
          "type": "bytes"
        }
      ],
      "name": "safeTransferFrom",
      "outputs": [],
      "stateMutability": "nonpayable",
      "type": "function"
    },
    {
      "inputs": [
        {
          "internalType": "address",
          "name": "operator",
          "type": "address"
        },
        {
          "internalType": "bool",
          "name": "approved",
          "type": "bool"
        }
      ],
      "name": "setApprovalForAll",
      "outputs": [],
      "stateMutability": "nonpayable",
      "type": "function"
    },
    {
      "inputs": [
        {
          "internalType": "bytes4",
          "name": "interfaceId",
          "type": "bytes4"
        }
      ],
      "name": "supportsInterface",
      "outputs": [
        {
          "internalType": "bool",
          "name": "",
          "type": "bool"
        }
      ],
      "stateMutability": "view",
      "type": "function"
    },
    {
      "inputs": [],
      "name": "symbol",
      "outputs": [
        {
          "internalType": "string",
          "name": "",
          "type": "string"
        }
      ],
      "stateMutability": "view",
      "type": "function"
    },
    {
      "inputs": [
        {
          "internalType": "uint256",
          "name": "tokenId",
          "type": "uint256"
        }
      ],
      "name": "tokenURI",
      "outputs": [
        {
          "internalType": "string",
          "name": "",
          "type": "string"
        }
      ],
      "stateMutability": "view",
      "type": "function"
    },
    {
      "inputs": [
        {
          "internalType": "address",
          "name": "from",
          "type": "address"
        },
        {
          "internalType": "address",
          "name": "to",
          "type": "address"
        },
        {
          "internalType": "uint256",
          "name": "tokenId",
          "type": "uint256"
        }
      ],
      "name": "transferFrom",
      "outputs": [],
      "stateMutability": "nonpayable",
      "type": "function"
    }
  ],
  "bytecode": "0x608060405260405180610160016040528061012f81526020016200471f61012f9139600890805190602001906200003892919062000d6b565b506040518061020001604052806040518060400160405280600481526020017f6c65616e0000000000000000000000000000000000000000000000000000000081525081526020016040518060400160405280600481526020017f626c75650000000000000000000000000000000000000000000000000000000081525081526020016040518060400160405280600481526020017f6c6f75640000000000000000000000000000000000000000000000000000000081525081526020016040518060400160405280600481526020017f796561720000000000000000000000000000000000000000000000000000000081525081526020016040518060400160405280600381526020017f686970000000000000000000000000000000000000000000000000000000000081525081526020016040518060400160405280600781526020017f626973637569740000000000000000000000000000000000000000000000000081525081526020016040518060400160405280600a81526020017f636f6e76696374696f6e0000000000000000000000000000000000000000000081525081526020016040518060400160405280600881526020017f706f72747261697400000000000000000000000000000000000000000000000081525081526020016040518060400160405280600681526020017f6f70706f7365000000000000000000000000000000000000000000000000000081525081526020016040518060400160405280600a81526020017f61646d69726174696f6e0000000000000000000000000000000000000000000081525081526020016040518060400160405280600381526020017f776179000000000000000000000000000000000000000000000000000000000081525081526020016040518060400160405280600481526020017f6c6f616e0000000000000000000000000000000000000000000000000000000081525081526020016040518060400160405280600681526020017f706f6c697465000000000000000000000000000000000000000000000000000081525081526020016040518060400160405280600781526020017f70726f66696c650000000000000000000000000000000000000000000000000081525081526020016040518060400160405280600481526020017f626f6c640000000000000000000000000000000000000000000000000000000081525081526020016040518060400160405280600a81526020017f67656e65726174696f6e0000000000000000000000000000000000000000000081525081525060099060106200040592919062000dfc565b506040518061020001604052806040518060400160405280600781526020017f646573706169720000000000000000000000000000000000000000000000000081525081526020016040518060400160405280600381526020017f667572000000000000000000000000000000000000000000000000000000000081525081526020016040518060400160405280600981526020017f6b6e6f776c65646765000000000000000000000000000000000000000000000081525081526020016040518060400160405280600881526020017f7265636f7665727900000000000000000000000000000000000000000000000081525081526020016040518060400160405280600c81526020017f73706f6b6573706572736f6e000000000000000000000000000000000000000081525081526020016040518060400160405280600581526020017f6272696e6b00000000000000000000000000000000000000000000000000000081525081526020016040518060400160405280600a81526020017f646566696369656e63790000000000000000000000000000000000000000000081525081526020016040518060400160405280600481526020017f736c61700000000000000000000000000000000000000000000000000000000081525081526020016040518060400160405280600481526020017f6c6173740000000000000000000000000000000000000000000000000000000081525081526020016040518060400160405280600581526020017f6c656d6f6e00000000000000000000000000000000000000000000000000000081525081526020016040518060400160405280600681526020017f63686f696365000000000000000000000000000000000000000000000000000081525081526020016040518060400160405280600481526020017f6d6561740000000000000000000000000000000000000000000000000000000081525081526020016040518060400160405280600581526020017f747261637400000000000000000000000000000000000000000000000000000081525081526020016040518060400160405280600681526020017f706174656e74000000000000000000000000000000000000000000000000000081525081526020016040518060400160405280600681526020017f6d6f6e6b6579000000000000000000000000000000000000000000000000000081525081526020016040518060400160405280600681526020017f62726f6e7a650000000000000000000000000000000000000000000000000000815250815250600a906010620007d292919062000dfc565b506040518061020001604052806040518060400160405280600981526020017f6d6967726174696f6e000000000000000000000000000000000000000000000081525081526020016040518060400160405280600781526020017f7261646963616c0000000000000000000000000000000000000000000000000081525081526020016040518060400160405280600581526020017f6661766f7200000000000000000000000000000000000000000000000000000081525081526020016040518060400160405280600d81526020017f636f6e74726164696374696f6e0000000000000000000000000000000000000081525081526020016040518060400160405280600581526020017f666c6f617400000000000000000000000000000000000000000000000000000081525081526020016040518060400160405280600481526020017f666f6f6c0000000000000000000000000000000000000000000000000000000081525081526020016040518060400160405280600681526020017f647261776572000000000000000000000000000000000000000000000000000081525081526020016040518060400160405280600581526020017f746561636800000000000000000000000000000000000000000000000000000081525081526020016040518060400160405280600481526020017f6d6973730000000000000000000000000000000000000000000000000000000081525081526020016040518060400160405280600981526020017f657870657274697365000000000000000000000000000000000000000000000081525081526020016040518060400160405280600481526020017f776565640000000000000000000000000000000000000000000000000000000081525081526020016040518060400160405280600581526020017f637265657000000000000000000000000000000000000000000000000000000081525081526020016040518060400160405280600581526020017f7377696e6700000000000000000000000000000000000000000000000000000081525081526020016040518060400160405280600881526020017f696e64697265637400000000000000000000000000000000000000000000000081525081526020016040518060400160405280600581526020017f73746f726d00000000000000000000000000000000000000000000000000000081525081526020016040518060400160405280600b81526020017f6f7065726174696f6e616c000000000000000000000000000000000000000000815250815250600b90601062000b9f92919062000dfc565b5034801562000bad57600080fd5b506040518060400160405280600981526020017f5371756172654e465400000000000000000000000000000000000000000000008152506040518060400160405280600681526020017f5351554152450000000000000000000000000000000000000000000000000000815250816000908051906020019062000c3292919062000d6b565b50806001908051906020019062000c4b92919062000d6b565b50505062000c996040518060400160405280601e81526020017f54686973206973206d79204e465420636f6e74726163742e20576f616821000081525062000c9f60201b620010121760201c565b6200101d565b62000d3f8160405160240162000cb6919062000f94565b6040516020818303038152906040527f41304fac000000000000000000000000000000000000000000000000000000007bffffffffffffffffffffffffffffffffffffffffffffffffffffffff19166020820180517bffffffffffffffffffffffffffffffffffffffffffffffffffffffff838183161783525050505062000d4260201b60201c565b50565b60008151905060006a636f6e736f6c652e6c6f679050602083016000808483855afa5050505050565b82805462000d799062000fe7565b90600052602060002090601f01602090048101928262000d9d576000855562000de9565b82601f1062000db857805160ff191683800117855562000de9565b8280016001018555821562000de9579182015b8281111562000de857825182559160200191906001019062000dcb565b5b50905062000df8919062000e63565b5090565b82805482825590600052602060002090810192821562000e50579160200282015b8281111562000e4f57825182908051906020019062000e3e92919062000d6b565b509160200191906001019062000e1d565b5b50905062000e5f919062000e82565b5090565b5b8082111562000e7e57600081600090555060010162000e64565b5090565b5b8082111562000ea6576000818162000e9c919062000eaa565b5060010162000e83565b5090565b50805462000eb89062000fe7565b6000825580601f1062000ecc575062000eed565b601f01602090049060005260206000209081019062000eec919062000e63565b5b50565b600081519050919050565b600082825260208201905092915050565b60005b8381101562000f2c57808201518184015260208101905062000f0f565b8381111562000f3c576000848401525b50505050565b6000601f19601f8301169050919050565b600062000f608262000ef0565b62000f6c818562000efb565b935062000f7e81856020860162000f0c565b62000f898162000f42565b840191505092915050565b6000602082019050818103600083015262000fb0818462000f53565b905092915050565b7f4e487b7100000000000000000000000000000000000000000000000000000000600052602260045260246000fd5b600060028204905060018216806200100057607f821691505b6020821081141562001017576200101662000fb8565b5b50919050565b6136f2806200102d6000396000f3fe608060405234801561001057600080fd5b506004361061010b5760003560e01c806370a08231116100a2578063b88d4fde11610071578063b88d4fde146102dc578063c575757a146102f8578063c87b56dd14610328578063de9d132f14610358578063e985e9c5146103625761010b565b806370a082311461024257806395d89b4114610272578063a22cb46514610290578063b187301f146102ac5761010b565b806323b872dd116100de57806323b872dd146101aa5780632de38d68146101c657806342842e0e146101f65780636352211e146102125761010b565b806301ffc9a71461011057806306fdde0314610140578063081812fc1461015e578063095ea7b31461018e575b600080fd5b61012a60048036038101906101259190612183565b610392565b60405161013791906121cb565b60405180910390f35b610148610474565b604051610155919061227f565b60405180910390f35b610178600480360381019061017391906122d7565b610506565b6040516101859190612345565b60405180910390f35b6101a860048036038101906101a3919061238c565b61054c565b005b6101c460048036038101906101bf91906123cc565b610664565b005b6101e060048036038101906101db91906122d7565b6106c4565b6040516101ed919061227f565b60405180910390f35b610210600480360381019061020b91906123cc565b6107bc565b005b61022c600480360381019061022791906122d7565b6107dc565b6040516102399190612345565b60405180910390f35b61025c6004803603810190610257919061241f565b61088e565b604051610269919061245b565b60405180910390f35b61027a610946565b604051610287919061227f565b60405180910390f35b6102aa60048036038101906102a591906124a2565b6109d8565b005b6102c660048036038101906102c191906122d7565b6109ee565b6040516102d3919061227f565b60405180910390f35b6102f660048036038101906102f19190612617565b610ae6565b005b610312600480360381019061030d91906122d7565b610b48565b60405161031f919061227f565b60405180910390f35b610342600480360381019061033d91906122d7565b610c40565b60405161034f919061227f565b60405180910390f35b610360610d53565b005b61037c6004803603810190610377919061269a565b610f7e565b60405161038991906121cb565b60405180910390f35b60007f80ac58cd000000000000000000000000000000000000000000000000000000007bffffffffffffffffffffffffffffffffffffffffffffffffffffffff1916827bffffffffffffffffffffffffffffffffffffffffffffffffffffffff1916148061045d57507f5b5e139f000000000000000000000000000000000000000000000000000000007bffffffffffffffffffffffffffffffffffffffffffffffffffffffff1916827bffffffffffffffffffffffffffffffffffffffffffffffffffffffff1916145b8061046d575061046c826110ab565b5b9050919050565b60606000805461048390612709565b80601f01602080910402602001604051908101604052809291908181526020018280546104af90612709565b80156104fc5780601f106104d1576101008083540402835291602001916104fc565b820191906000526020600020905b8154815290600101906020018083116104df57829003601f168201915b5050505050905090565b600061051182611115565b6004600083815260200190815260200160002060009054906101000a900473ffffffffffffffffffffffffffffffffffffffff169050919050565b6000610557826107dc565b90508073ffffffffffffffffffffffffffffffffffffffff168373ffffffffffffffffffffffffffffffffffffffff1614156105c8576040517f08c379a00000000000000000000000000000000000000000000000000000000081526004016105bf906127ad565b60405180910390fd5b8073ffffffffffffffffffffffffffffffffffffffff166105e7611160565b73ffffffffffffffffffffffffffffffffffffffff161480610616575061061581610610611160565b610f7e565b5b610655576040517f08c379a000000000000000000000000000000000000000000000000000000000815260040161064c9061283f565b60405180910390fd5b61065f8383611168565b505050565b61067561066f611160565b82611221565b6106b4576040517f08c379a00000000000000000000000000000000000000000000000000000000081526004016106ab906128d1565b60405180910390fd5b6106bf8383836112b6565b505050565b606060006106f86106d48461151d565b6040516020016106e49190612979565b60405160208183030381529060405261167e565b90506009805490508161070b91906129ca565b905060098181548110610721576107206129fb565b5b90600052602060002001805461073690612709565b80601f016020809104026020016040519081016040528092919081815260200182805461076290612709565b80156107af5780601f10610784576101008083540402835291602001916107af565b820191906000526020600020905b81548152906001019060200180831161079257829003601f168201915b5050505050915050919050565b6107d783838360405180602001604052806000815250610ae6565b505050565b6000806002600084815260200190815260200160002060009054906101000a900473ffffffffffffffffffffffffffffffffffffffff169050600073ffffffffffffffffffffffffffffffffffffffff168173ffffffffffffffffffffffffffffffffffffffff161415610885576040517f08c379a000000000000000000000000000000000000000000000000000000000815260040161087c90612a76565b60405180910390fd5b80915050919050565b60008073ffffffffffffffffffffffffffffffffffffffff168273ffffffffffffffffffffffffffffffffffffffff1614156108ff576040517f08c379a00000000000000000000000000000000000000000000000000000000081526004016108f690612b08565b60405180910390fd5b600360008373ffffffffffffffffffffffffffffffffffffffff1673ffffffffffffffffffffffffffffffffffffffff168152602001908152602001600020549050919050565b60606001805461095590612709565b80601f016020809104026020016040519081016040528092919081815260200182805461098190612709565b80156109ce5780601f106109a3576101008083540402835291602001916109ce565b820191906000526020600020905b8154815290600101906020018083116109b157829003601f168201915b5050505050905090565b6109ea6109e3611160565b83836116b1565b5050565b60606000610a226109fe8461151d565b604051602001610a0e9190612b74565b60405160208183030381529060405261167e565b9050600a8054905081610a3591906129ca565b9050600a8181548110610a4b57610a4a6129fb565b5b906000526020600020018054610a6090612709565b80601f0160208091040260200160405190810160405280929190818152602001828054610a8c90612709565b8015610ad95780601f10610aae57610100808354040283529160200191610ad9565b820191906000526020600020905b815481529060010190602001808311610abc57829003601f168201915b5050505050915050919050565b610af7610af1611160565b83611221565b610b36576040517f08c379a0000000000000000000000000000000000000000000000000000000008152600401610b2d906128d1565b60405180910390fd5b610b428484848461181e565b50505050565b60606000610b7c610b588461151d565b604051602001610b689190612be2565b60405160208183030381529060405261167e565b9050600b8054905081610b8f91906129ca565b9050600b8181548110610ba557610ba46129fb565b5b906000526020600020018054610bba90612709565b80601f0160208091040260200160405190810160405280929190818152602001828054610be690612709565b8015610c335780601f10610c0857610100808354040283529160200191610c33565b820191906000526020600020905b815481529060010190602001808311610c1657829003601f168201915b5050505050915050919050565b6060610c4b82611115565b6000600660008481526020019081526020016000208054610c6b90612709565b80601f0160208091040260200160405190810160405280929190818152602001828054610c9790612709565b8015610ce45780601f10610cb957610100808354040283529160200191610ce4565b820191906000526020600020905b815481529060010190602001808311610cc757829003601f168201915b505050505090506000610cf561187a565b9050600081511415610d0b578192505050610d4e565b600082511115610d40578082604051602001610d28929190612c04565b60405160208183030381529060405292505050610d4e565b610d4984611891565b925050505b919050565b6000610d5f60076118f9565b90506032811115610da5576040517f08c379a0000000000000000000000000000000000000000000000000000000008152600401610d9c90612c74565b60405180910390fd5b6000610db0826106c4565b90506000610dbd836109ee565b90506000610dca84610b48565b90506000838383604051602001610de393929190612c94565b60405160208183030381529060405290506000600882604051602001610e0a929190612da5565b60405160208183030381529060405290506000610e4f83610e2a84611907565b604051602001610e3b929190612f2a565b604051602081830303815290604052611907565b9050600081604051602001610e649190612fbb565b6040516020818303038152906040529050610eb36040518060400160405280601581526020017f0a2d2d2d2d2d2d2d2d2d2d2d2d2d2d2d2d2d2d2d2d0000000000000000000000815250611012565b610ebc81611012565b610efa6040518060400160405280601581526020017f2d2d2d2d2d2d2d2d2d2d2d2d2d2d2d2d2d2d2d2d0a0000000000000000000000815250611012565b610f043389611a9f565b610f0e8882611abd565b610f186007611b31565b610f3b604051806060016040528060258152602001613658602591398933611b47565b7febb98688741ffa4c7589bf325de30cf7becb63de567842e1ccdb6cb949fdc82c3389604051610f6c929190612fdd565b60405180910390a15050505050505050565b6000600560008473ffffffffffffffffffffffffffffffffffffffff1673ffffffffffffffffffffffffffffffffffffffff16815260200190815260200160002060008373ffffffffffffffffffffffffffffffffffffffff1673ffffffffffffffffffffffffffffffffffffffff16815260200190815260200160002060009054906101000a900460ff16905092915050565b6110a881604051602401611026919061227f565b6040516020818303038152906040527f41304fac000000000000000000000000000000000000000000000000000000007bffffffffffffffffffffffffffffffffffffffffffffffffffffffff19166020820180517bffffffffffffffffffffffffffffffffffffffffffffffffffffffff8381831617835250505050611be6565b50565b60007f01ffc9a7000000000000000000000000000000000000000000000000000000007bffffffffffffffffffffffffffffffffffffffffffffffffffffffff1916827bffffffffffffffffffffffffffffffffffffffffffffffffffffffff1916149050919050565b61111e81611c0f565b61115d576040517f08c379a000000000000000000000000000000000000000000000000000000000815260040161115490612a76565b60405180910390fd5b50565b600033905090565b816004600083815260200190815260200160002060006101000a81548173ffffffffffffffffffffffffffffffffffffffff021916908373ffffffffffffffffffffffffffffffffffffffff160217905550808273ffffffffffffffffffffffffffffffffffffffff166111db836107dc565b73ffffffffffffffffffffffffffffffffffffffff167f8c5be1e5ebec7d5bd14f71427d1e84f3dd0314c0f7b2291e5b200ac8c7c3b92560405160405180910390a45050565b60008061122d836107dc565b90508073ffffffffffffffffffffffffffffffffffffffff168473ffffffffffffffffffffffffffffffffffffffff16148061126f575061126e8185610f7e565b5b806112ad57508373ffffffffffffffffffffffffffffffffffffffff1661129584610506565b73ffffffffffffffffffffffffffffffffffffffff16145b91505092915050565b8273ffffffffffffffffffffffffffffffffffffffff166112d6826107dc565b73ffffffffffffffffffffffffffffffffffffffff161461132c576040517f08c379a000000000000000000000000000000000000000000000000000000000815260040161132390613078565b60405180910390fd5b600073ffffffffffffffffffffffffffffffffffffffff168273ffffffffffffffffffffffffffffffffffffffff16141561139c576040517f08c379a00000000000000000000000000000000000000000000000000000000081526004016113939061310a565b60405180910390fd5b6113a7838383611c7b565b6113b2600082611168565b6001600360008573ffffffffffffffffffffffffffffffffffffffff1673ffffffffffffffffffffffffffffffffffffffff16815260200190815260200160002060008282546114029190613159565b925050819055506001600360008473ffffffffffffffffffffffffffffffffffffffff1673ffffffffffffffffffffffffffffffffffffffff1681526020019081526020016000206000828254611459919061318d565b92505081905550816002600083815260200190815260200160002060006101000a81548173ffffffffffffffffffffffffffffffffffffffff021916908373ffffffffffffffffffffffffffffffffffffffff160217905550808273ffffffffffffffffffffffffffffffffffffffff168473ffffffffffffffffffffffffffffffffffffffff167fddf252ad1be2c89b69c2b068fc378daa952ba7f163c4a11628f55a4df523b3ef60405160405180910390a4611518838383611c80565b505050565b60606000821415611565576040518060400160405280600181526020017f30000000000000000000000000000000000000000000000000000000000000008152509050611679565b600082905060005b60008214611597578080611580906131e3565b915050600a82611590919061322c565b915061156d565b60008167ffffffffffffffff8111156115b3576115b26124ec565b5b6040519080825280601f01601f1916602001820160405280156115e55781602001600182028036833780820191505090505b5090505b60008514611672576001826115fe9190613159565b9150600a8561160d91906129ca565b6030611619919061318d565b60f81b81838151811061162f5761162e6129fb565b5b60200101907effffffffffffffffffffffffffffffffffffffffffffffffffffffffffffff1916908160001a905350600a8561166b919061322c565b94506115e9565b8093505050505b919050565b600081604051602001611691919061325d565b6040516020818303038152906040528051906020012060001c9050919050565b8173ffffffffffffffffffffffffffffffffffffffff168373ffffffffffffffffffffffffffffffffffffffff161415611720576040517f08c379a0000000000000000000000000000000000000000000000000000000008152600401611717906132c0565b60405180910390fd5b80600560008573ffffffffffffffffffffffffffffffffffffffff1673ffffffffffffffffffffffffffffffffffffffff16815260200190815260200160002060008473ffffffffffffffffffffffffffffffffffffffff1673ffffffffffffffffffffffffffffffffffffffff16815260200190815260200160002060006101000a81548160ff0219169083151502179055508173ffffffffffffffffffffffffffffffffffffffff168373ffffffffffffffffffffffffffffffffffffffff167f17307eab39ab6107e8899845ad3d59bd9653f200f220920489ca2b5937696c318360405161181191906121cb565b60405180910390a3505050565b6118298484846112b6565b61183584848484611c85565b611874576040517f08c379a000000000000000000000000000000000000000000000000000000000815260040161186b90613352565b60405180910390fd5b50505050565b606060405180602001604052806000815250905090565b606061189c82611115565b60006118a661187a565b905060008151116118c657604051806020016040528060008152506118f1565b806118d08461151d565b6040516020016118e1929190612c04565b6040516020818303038152906040525b915050919050565b600081600001549050919050565b606060008251905060008114156119305760405180602001604052806000815250915050611a9a565b60006003600283611941919061318d565b61194b919061322c565b60046119579190613372565b90506000602082611968919061318d565b67ffffffffffffffff811115611981576119806124ec565b5b6040519080825280601f01601f1916602001820160405280156119b35781602001600182028036833780820191505090505b509050600060405180606001604052806040815260200161367d604091399050600181016020830160005b86811015611a575760038101905062ffffff818a015116603f8160121c168401518060081b905060ff603f83600c1c1686015116810190508060081b905060ff603f8360061c1686015116810190508060081b905060ff603f831686015116810190508060e01b905080845260048401935050506119de565b506003860660018114611a715760028114611a8157611a8c565b613d3d60f01b6002830352611a8c565b603d60f81b60018303525b508484525050819450505050505b919050565b611ab9828260405180602001604052806000815250611e1c565b5050565b611ac682611c0f565b611b05576040517f08c379a0000000000000000000000000000000000000000000000000000000008152600401611afc9061343e565b60405180910390fd5b80600660008481526020019081526020016000209080519060200190611b2c929190612074565b505050565b6001816000016000828254019250508190555050565b611be1838383604051602401611b5f9392919061345e565b6040516020818303038152906040527fe3849f79000000000000000000000000000000000000000000000000000000007bffffffffffffffffffffffffffffffffffffffffffffffffffffffff19166020820180517bffffffffffffffffffffffffffffffffffffffffffffffffffffffff8381831617835250505050611be6565b505050565b60008151905060006a636f6e736f6c652e6c6f679050602083016000808483855afa5050505050565b60008073ffffffffffffffffffffffffffffffffffffffff166002600084815260200190815260200160002060009054906101000a900473ffffffffffffffffffffffffffffffffffffffff1673ffffffffffffffffffffffffffffffffffffffff1614159050919050565b505050565b505050565b6000611ca68473ffffffffffffffffffffffffffffffffffffffff16611e77565b15611e0f578373ffffffffffffffffffffffffffffffffffffffff1663150b7a02611ccf611160565b8786866040518563ffffffff1660e01b8152600401611cf194939291906134f1565b602060405180830381600087803b158015611d0b57600080fd5b505af1925050508015611d3c57506040513d601f19601f82011682018060405250810190611d399190613552565b60015b611dbf573d8060008114611d6c576040519150601f19603f3d011682016040523d82523d6000602084013e611d71565b606091505b50600081511415611db7576040517f08c379a0000000000000000000000000000000000000000000000000000000008152600401611dae90613352565b60405180910390fd5b805181602001fd5b63150b7a0260e01b7bffffffffffffffffffffffffffffffffffffffffffffffffffffffff1916817bffffffffffffffffffffffffffffffffffffffffffffffffffffffff191614915050611e14565b600190505b949350505050565b611e268383611e9a565b611e336000848484611c85565b611e72576040517f08c379a0000000000000000000000000000000000000000000000000000000008152600401611e6990613352565b60405180910390fd5b505050565b6000808273ffffffffffffffffffffffffffffffffffffffff163b119050919050565b600073ffffffffffffffffffffffffffffffffffffffff168273ffffffffffffffffffffffffffffffffffffffff161415611f0a576040517f08c379a0000000000000000000000000000000000000000000000000000000008152600401611f01906135cb565b60405180910390fd5b611f1381611c0f565b15611f53576040517f08c379a0000000000000000000000000000000000000000000000000000000008152600401611f4a90613637565b60405180910390fd5b611f5f60008383611c7b565b6001600360008473ffffffffffffffffffffffffffffffffffffffff1673ffffffffffffffffffffffffffffffffffffffff1681526020019081526020016000206000828254611faf919061318d565b92505081905550816002600083815260200190815260200160002060006101000a81548173ffffffffffffffffffffffffffffffffffffffff021916908373ffffffffffffffffffffffffffffffffffffffff160217905550808273ffffffffffffffffffffffffffffffffffffffff16600073ffffffffffffffffffffffffffffffffffffffff167fddf252ad1be2c89b69c2b068fc378daa952ba7f163c4a11628f55a4df523b3ef60405160405180910390a461207060008383611c80565b5050565b82805461208090612709565b90600052602060002090601f0160209004810192826120a257600085556120e9565b82601f106120bb57805160ff19168380011785556120e9565b828001600101855582156120e9579182015b828111156120e85782518255916020019190600101906120cd565b5b5090506120f691906120fa565b5090565b5b808211156121135760008160009055506001016120fb565b5090565b6000604051905090565b600080fd5b600080fd5b60007fffffffff0000000000000000000000000000000000000000000000000000000082169050919050565b6121608161212b565b811461216b57600080fd5b50565b60008135905061217d81612157565b92915050565b60006020828403121561219957612198612121565b5b60006121a78482850161216e565b91505092915050565b60008115159050919050565b6121c5816121b0565b82525050565b60006020820190506121e060008301846121bc565b92915050565b600081519050919050565b600082825260208201905092915050565b60005b83811015612220578082015181840152602081019050612205565b8381111561222f576000848401525b50505050565b6000601f19601f8301169050919050565b6000612251826121e6565b61225b81856121f1565b935061226b818560208601612202565b61227481612235565b840191505092915050565b600060208201905081810360008301526122998184612246565b905092915050565b6000819050919050565b6122b4816122a1565b81146122bf57600080fd5b50565b6000813590506122d1816122ab565b92915050565b6000602082840312156122ed576122ec612121565b5b60006122fb848285016122c2565b91505092915050565b600073ffffffffffffffffffffffffffffffffffffffff82169050919050565b600061232f82612304565b9050919050565b61233f81612324565b82525050565b600060208201905061235a6000830184612336565b92915050565b61236981612324565b811461237457600080fd5b50565b60008135905061238681612360565b92915050565b600080604083850312156123a3576123a2612121565b5b60006123b185828601612377565b92505060206123c2858286016122c2565b9150509250929050565b6000806000606084860312156123e5576123e4612121565b5b60006123f386828701612377565b935050602061240486828701612377565b9250506040612415868287016122c2565b9150509250925092565b60006020828403121561243557612434612121565b5b600061244384828501612377565b91505092915050565b612455816122a1565b82525050565b6000602082019050612470600083018461244c565b92915050565b61247f816121b0565b811461248a57600080fd5b50565b60008135905061249c81612476565b92915050565b600080604083850312156124b9576124b8612121565b5b60006124c785828601612377565b92505060206124d88582860161248d565b9150509250929050565b600080fd5b600080fd5b7f4e487b7100000000000000000000000000000000000000000000000000000000600052604160045260246000fd5b61252482612235565b810181811067ffffffffffffffff82111715612543576125426124ec565b5b80604052505050565b6000612556612117565b9050612562828261251b565b919050565b600067ffffffffffffffff821115612582576125816124ec565b5b61258b82612235565b9050602081019050919050565b82818337600083830152505050565b60006125ba6125b584612567565b61254c565b9050828152602081018484840111156125d6576125d56124e7565b5b6125e1848285612598565b509392505050565b600082601f8301126125fe576125fd6124e2565b5b813561260e8482602086016125a7565b91505092915050565b6000806000806080858703121561263157612630612121565b5b600061263f87828801612377565b945050602061265087828801612377565b9350506040612661878288016122c2565b925050606085013567ffffffffffffffff81111561268257612681612126565b5b61268e878288016125e9565b91505092959194509250565b600080604083850312156126b1576126b0612121565b5b60006126bf85828601612377565b92505060206126d085828601612377565b9150509250929050565b7f4e487b7100000000000000000000000000000000000000000000000000000000600052602260045260246000fd5b6000600282049050600182168061272157607f821691505b60208210811415612735576127346126da565b5b50919050565b7f4552433732313a20617070726f76616c20746f2063757272656e74206f776e6560008201527f7200000000000000000000000000000000000000000000000000000000000000602082015250565b60006127976021836121f1565b91506127a28261273b565b604082019050919050565b600060208201905081810360008301526127c68161278a565b9050919050565b7f4552433732313a20617070726f76652063616c6c6572206973206e6f7420746f60008201527f6b656e206f776e6572206e6f7220617070726f76656420666f7220616c6c0000602082015250565b6000612829603e836121f1565b9150612834826127cd565b604082019050919050565b600060208201905081810360008301526128588161281c565b9050919050565b7f4552433732313a2063616c6c6572206973206e6f7420746f6b656e206f776e6560008201527f72206e6f7220617070726f766564000000000000000000000000000000000000602082015250565b60006128bb602e836121f1565b91506128c68261285f565b604082019050919050565b600060208201905081810360008301526128ea816128ae565b9050919050565b600081905092915050565b7f46495253545f574f524400000000000000000000000000000000000000000000600082015250565b6000612932600a836128f1565b915061293d826128fc565b600a82019050919050565b6000612953826121e6565b61295d81856128f1565b935061296d818560208601612202565b80840191505092915050565b600061298482612925565b91506129908284612948565b915081905092915050565b7f4e487b7100000000000000000000000000000000000000000000000000000000600052601260045260246000fd5b60006129d5826122a1565b91506129e0836122a1565b9250826129f0576129ef61299b565b5b828206905092915050565b7f4e487b7100000000000000000000000000000000000000000000000000000000600052603260045260246000fd5b7f4552433732313a20696e76616c696420746f6b656e2049440000000000000000600082015250565b6000612a606018836121f1565b9150612a6b82612a2a565b602082019050919050565b60006020820190508181036000830152612a8f81612a53565b9050919050565b7f4552433732313a2061646472657373207a65726f206973206e6f74206120766160008201527f6c6964206f776e65720000000000000000000000000000000000000000000000602082015250565b6000612af26029836121f1565b9150612afd82612a96565b604082019050919050565b60006020820190508181036000830152612b2181612ae5565b9050919050565b7f5345434f4e445f574f5244000000000000000000000000000000000000000000600082015250565b6000612b5e600b836128f1565b9150612b6982612b28565b600b82019050919050565b6000612b7f82612b51565b9150612b8b8284612948565b915081905092915050565b7f54484952445f574f524400000000000000000000000000000000000000000000600082015250565b6000612bcc600a836128f1565b9150612bd782612b96565b600a82019050919050565b6000612bed82612bbf565b9150612bf98284612948565b915081905092915050565b6000612c108285612948565b9150612c1c8284612948565b91508190509392505050565b7f4e4654206d696e74696e67206d61786564206f75742100000000000000000000600082015250565b6000612c5e6016836121f1565b9150612c6982612c28565b602082019050919050565b60006020820190508181036000830152612c8d81612c51565b9050919050565b6000612ca08286612948565b9150612cac8285612948565b9150612cb88284612948565b9150819050949350505050565b60008190508160005260206000209050919050565b60008154612ce781612709565b612cf181866128f1565b94506001821660008114612d0c5760018114612d1d57612d50565b60ff19831686528186019350612d50565b612d2685612cc5565b60005b83811015612d4857815481890152600182019150602081019050612d29565b838801955050505b50505092915050565b7f3c2f746578743e3c2f7376673e00000000000000000000000000000000000000600082015250565b6000612d8f600d836128f1565b9150612d9a82612d59565b600d82019050919050565b6000612db18285612cda565b9150612dbd8284612948565b9150612dc882612d82565b91508190509392505050565b7f7b226e616d65223a202200000000000000000000000000000000000000000000600082015250565b6000612e0a600a836128f1565b9150612e1582612dd4565b600a82019050919050565b7f222c20226465736372697074696f6e223a20224120686967686c79206163636c60008201527f61696d656420636f6c6c656374696f6e206f6620737175617265732e222c202260208201527f696d616765223a2022646174613a696d6167652f7376672b786d6c3b6261736560408201527f36342c0000000000000000000000000000000000000000000000000000000000606082015250565b6000612ec86063836128f1565b9150612ed382612e20565b606382019050919050565b7f227d000000000000000000000000000000000000000000000000000000000000600082015250565b6000612f146002836128f1565b9150612f1f82612ede565b600282019050919050565b6000612f3582612dfd565b9150612f418285612948565b9150612f4c82612ebb565b9150612f588284612948565b9150612f6382612f07565b91508190509392505050565b7f646174613a6170706c69636174696f6e2f6a736f6e3b6261736536342c000000600082015250565b6000612fa5601d836128f1565b9150612fb082612f6f565b601d82019050919050565b6000612fc682612f98565b9150612fd28284612948565b915081905092915050565b6000604082019050612ff26000830185612336565b612fff602083018461244c565b9392505050565b7f4552433732313a207472616e736665722066726f6d20696e636f72726563742060008201527f6f776e6572000000000000000000000000000000000000000000000000000000602082015250565b60006130626025836121f1565b915061306d82613006565b604082019050919050565b6000602082019050818103600083015261309181613055565b9050919050565b7f4552433732313a207472616e7366657220746f20746865207a65726f2061646460008201527f7265737300000000000000000000000000000000000000000000000000000000602082015250565b60006130f46024836121f1565b91506130ff82613098565b604082019050919050565b60006020820190508181036000830152613123816130e7565b9050919050565b7f4e487b7100000000000000000000000000000000000000000000000000000000600052601160045260246000fd5b6000613164826122a1565b915061316f836122a1565b9250828210156131825761318161312a565b5b828203905092915050565b6000613198826122a1565b91506131a3836122a1565b9250827fffffffffffffffffffffffffffffffffffffffffffffffffffffffffffffffff038211156131d8576131d761312a565b5b828201905092915050565b60006131ee826122a1565b91507fffffffffffffffffffffffffffffffffffffffffffffffffffffffffffffffff8214156132215761322061312a565b5b600182019050919050565b6000613237826122a1565b9150613242836122a1565b9250826132525761325161299b565b5b828204905092915050565b60006132698284612948565b915081905092915050565b7f4552433732313a20617070726f766520746f2063616c6c657200000000000000600082015250565b60006132aa6019836121f1565b91506132b582613274565b602082019050919050565b600060208201905081810360008301526132d98161329d565b9050919050565b7f4552433732313a207472616e7366657220746f206e6f6e20455243373231526560008201527f63656976657220696d706c656d656e7465720000000000000000000000000000602082015250565b600061333c6032836121f1565b9150613347826132e0565b604082019050919050565b6000602082019050818103600083015261336b8161332f565b9050919050565b600061337d826122a1565b9150613388836122a1565b9250817fffffffffffffffffffffffffffffffffffffffffffffffffffffffffffffffff04831182151516156133c1576133c061312a565b5b828202905092915050565b7f45524337323155524953746f726167653a2055524920736574206f66206e6f6e60008201527f6578697374656e7420746f6b656e000000000000000000000000000000000000602082015250565b6000613428602e836121f1565b9150613433826133cc565b604082019050919050565b600060208201905081810360008301526134578161341b565b9050919050565b600060608201905081810360008301526134788186612246565b9050613487602083018561244c565b6134946040830184612336565b949350505050565b600081519050919050565b600082825260208201905092915050565b60006134c38261349c565b6134cd81856134a7565b93506134dd818560208601612202565b6134e681612235565b840191505092915050565b60006080820190506135066000830187612336565b6135136020830186612336565b613520604083018561244c565b818103606083015261353281846134b8565b905095945050505050565b60008151905061354c81612157565b92915050565b60006020828403121561356857613567612121565b5b60006135768482850161353d565b91505092915050565b7f4552433732313a206d696e7420746f20746865207a65726f2061646472657373600082015250565b60006135b56020836121f1565b91506135c08261357f565b602082019050919050565b600060208201905081810360008301526135e4816135a8565b9050919050565b7f4552433732313a20746f6b656e20616c7265616479206d696e74656400000000600082015250565b6000613621601c836121f1565b915061362c826135eb565b602082019050919050565b6000602082019050818103600083015261365081613614565b905091905056fe416e204e465420772f20494420257320686173206265656e206d696e74656420746f2025734142434445464748494a4b4c4d4e4f505152535455565758595a6162636465666768696a6b6c6d6e6f707172737475767778797a303132333435363738392b2fa2646970667358221220a20e8a96dcbcc0a77c643eea76dd589acbe3577dbd71026f762114055bac560764736f6c634300080900333c73766720786d6c6e733d27687474703a2f2f7777772e77332e6f72672f323030302f73766727207072657365727665417370656374526174696f3d27784d696e594d696e206d656574272076696577426f783d273020302033353020333530273e3c7374796c653e2e62617365207b2066696c6c3a2077686974653b20666f6e742d66616d696c793a2073657269663b20666f6e742d73697a653a20323470783b207d3c2f7374796c653e3c726563742077696474683d273130302527206865696768743d2731303025272066696c6c3d27626c61636b27202f3e3c7465787420783d273530252720793d273530252720636c6173733d27626173652720646f6d696e616e742d626173656c696e653d276d6964646c652720746578742d616e63686f723d276d6964646c65273e",
  "linkReferences": {},
  "deployedLinkReferences": {}
}